:020000040800F2
:100000002810002045010008D73400080D02000820
:10001000D5340008070B0008CB3A000800000000A8
:100020000000000000000000000000005701000870
:10003000090B00080000000097010008D9340008EF
:100040005F0100085F0100085F0100085F01000810
:100050005F0100085F0100085F0100085F01000800
:100060005F0100085F0100085F0100085F010008F0
:100070005F0100085F0100085F0100085F010008E0
:100080005F0100085F0100085F0100085F010008D0
:100090005F0100085F0100085F0100085F010008C0
:1000A0005F0100085F0100085F0100085F010008B0
:1000B000D13500085F0100085F0100085F010008FA
:1000C0005F0100085F0100085F0100085F01000890
:1000D0005F0100085F0100085F0100085F01000880
:1000E0005F0100085F0100085F0100085F01000870
:1000F0005F0100085F0100085F0100085F01000860
:100100005F0100085F0100085F0100085F0100084F
:10011000753800085F0100085F0100085F010008F2
:100120005F0100085F0100085F0100085F0100082F
:10013000DFF80CD000F084FC00480047A70A000854
:10014000281000200648804706480047FEE7FEE7E3
:10015000FEE7FEE7FEE7FEE7FEE7FEE7FEE7FEE777
:10016000CD35000831010008EFF3108072B67047FA
:1001700080F310887047324A1368012B04D04FF087
:10018000010313602F4A10602F4A11602F484FF06F
:10019000805101607047EFF3108272B62848016801
:1001A00091B14FF0000101602648016829B1EFF3D9
:1001B000098121E9F00F0068016023490968096895
:1001C000B1E8F00F81F3098882F310884EF0040E35
:1001D00070471D4908601B494FF00000086018492E
:1001E0004FF0010008601A481A49D0F8002041EA8F
:1001F0000201016015484FF0805101601648006807
:10020000006880F3088861B662B670471EF0040F7C
:100210000CBFEFF30880EFF3098020E9F00F40F8FE
:1002200004ED1EF0040F0CBF80F3088880F30988EA
:1002300000B504F09BFB5DF804EB4EF0040E704734
:10024000B4000020AC000020B000002004ED00E06D
:1002500020ED00E00000FFFF08ED00E02DE9F04197
:100260000024061B254671F1000605DA012400274B
:10027000D0EB070067EB0101161E73F1000605DAEB
:100280000027D2EB0702012567EB030300F0CAF950
:1002900086460E4617469C46AC4204D00025D0EB5D
:1002A000050E65EB010624B10020D2EB000760EBE0
:1002B000030C704631463A466346BDE8F081202A79
:1002C00004DB203A21FA02F00021704721FA02F300
:1002D000D040C2F120029140084319467047D2B283
:1002E00001E000F8012B491EFBD270470022F6E71F
:1002F00010B513460A4604461946FFF7F0FF20469C
:1003000010BDF0B480EA0102D40F4200B2EB410FFD
:1003100002D20246084611464A0042D0C30DDDB261
:10032000C1F3C752AD1A202D35DAC1F3160141F4DD
:10033000000204B15242C5F1200602FA06F12A4138
:100340001044B3EBD05F23D0C4B1012DA0EBC35058
:1003500009DCF0BC4FF0004202EAC352DBB200F508
:10036000000000F099B9400000F1807000EBC3502C
:10037000A0F1807040EAD170490009E0490841EAE3
:10038000C071A0EBC35000F50000400800EBC35063
:10039000F0BC00F078B96142012202EB4101001B80
:1003A000F6E7F0BC704781F00041AAE780F000401A
:1003B000A7E780EA010210B502F00043400022D016
:1003C0004A001FD0010E01EB1261C0F35600C2F3C8
:1003D000560240F4000042F40002A0FB0220000498
:1003E0007F39140400D0401C50EA124001D4400070
:1003F000491EC2B20C0604EBD010401C4008802AF3
:1004000002D003E0002010BD20F00100002900DA36
:100410000020184310BD30B480EA010202F000450C
:1004200030F0004221F0004013D090B1C30DD40D44
:10043000C2F31601C0F31600E41A41F4000140F4BF
:1004400000027D34914201D3641C00E04900002C7D
:1004500002DA30BC002070474FF4000000239142C4
:1004600001D3891A034340084FEA4101F7D151B142
:10047000914202D14FF0004105E002D24FF001015C
:1004800001E06FF0010103EBC450284430BC00F0E0
:10049000FAB8420005D0C0F3C7525242914201DC83
:1004A0000020704700EBC15070472DE9F04D81EA04
:1004B000030404F0004B21F0004514464FF0000AFD
:1004C00023F0004150EA050220D054EA01021DD079
:1004D000C5F30A570246C5F31303C1F31300C1F372
:1004E0000A5640F4801543F48013A7EB0608101B4E
:1004F000D64608F2FD3873EB050002D308F1010877
:1005000001E092185B41B8F1000F03DA00200146C8
:10051000BDE8F08D00204FF48011064684460EE0C1
:10052000171B73EB050705D3121B63EB050306438B
:100530004CEA010C49084FEA300092185B4150EA3E
:100540000107EDD152EA030012D082EA040083EAE7
:100550000501084305D0101BAB4106D20122002340
:1005600006E000224FF0004302E06FF0010253105A
:100570001AEB06004CEB085110EB0A0041EB0B01A3
:10058000BDE8F04D00F0B6B8C10F80EAE070084455
:10059000CA079623002100F07FB800F0004230F037
:1005A00000400AD0C10D01F56071C0F3160042EAA7
:1005B0000151C208400711437047002001467047AF
:1005C00001F0004330B421F0004150EA010206D0AE
:1005D0000A0DA2F56072C1F31301002A02DC30BCDF
:1005E00000207047440F44EAC104C100E01830BC49
:1005F00000EBC25000F047B830B50B460146002072
:100600002022012409E021FA02F59D4205D303FAD4
:1006100002F5491B04FA02F52844151EA2F1010255
:10062000F1DC30BD2DE9F05F0546002092469B4687
:1006300088460646814640241BE0284641464746F8
:100640002246FFF73CFE53465A46C01A914110D34A
:1006500011461846224600F005FA2D1A67EB0108EC
:100660004F4622460120002100F0FCF917EB00095B
:100670004E41201EA4F10104DFDC484631462A46E3
:100680004346BDE8F09F0029A8BF7047401C4900C1
:1006900008BF20F00100704710B4B0FA80FC00FAE7
:1006A0000CF050EA010404BF10BC704749B1CCF112
:1006B000200421FA04F411FA0CF118BF012121439E
:1006C0000843A3EB0C01CB1D4FEA00614FEA102059
:1006D00042BF002010BC704700EBC35010440029FB
:1006E000A4BF10BC7047401C490008BF20F00100A7
:1006F00010BC704710B5141E73F1000408DA401CDA
:1007000041F1000192185B411A4301D120F0010030
:1007100010BD2DE9F04D92469B4611B1B1FA81F220
:1007200002E0B0FA80F22032904600F09BF90446D5
:100730000F4640EA0A0041EA0B0153465A46084375
:1007400013D0114653EA010019D0C8F140025046B7
:10075000FFF7B5FD05460E4650465946424600F0A5
:1007600081F9084305D0012004E020463946BDE860
:10077000F08D0020054346EAE0762C4337430A9883
:100780006305E40AA0EB08000022FD0A44EA47548E
:100790000A3002D500200146E9E701051019694138
:1007A000DDE9084500196941BDE8F04DA2E72DE9F2
:1007B000FE4F804681EA0300C00F0C46009021F0F6
:1007C000004123F00045B8EB0200A94105D24046A4
:1007D000214690461C460B46024623F0004010433B
:1007E00047D0270DC7F30A00C3F30A510290401AFD
:1007F000019040286BDAC3F3130040F4801B00988B
:10080000924620B10023D2EB030A63EB0B0B019855
:100810005946C0F14002504600F024F906460D4604
:1008200050465946019A00F02CF910EB080061413E
:10083000002487EA115284EAE7731A4340D0009AF1
:1008400062B3019A012A4FEA075215DC001B61EBE3
:1008500002014FF0004202EA0752CDE90042001CBB
:1008600041F5801132462B46FFF753FF03B0BDE838
:10087000F08F40462146F9E7001B61EB0201001CA6
:1008800041F5801300185B412018A2F5001747EBD3
:10089000030140EAD570B6196D4111E06D084FEAC9
:1008A000360645EAC0754FEA0752001B61EB0201AC
:1008B000001C41F5801149084FEA300000195141F0
:1008C00032462B4603B0BDE8F04FFFF713BF009848
:1008D000012240000023D0EB020263EBE07300989A
:1008E00021464FEAE074B8EB000061EB0401E9E750
:1008F00083F000435BE781F0004158E72DE9FE4FAC
:1009000081EA030404F0004421F0004100944FF018
:10091000000B23F0004350EA01045ED052EA0304C6
:100920005BD0C3F30A54C1F30A552C44A4F2F33448
:100930000194A0FB0254C1F3130141F48011C3F3ED
:10094000130343F4801301FB024400FB034E840AAB
:10095000970A44EA815447EA8357A4FB0768029543
:100960008D0A05FB07854FEA932C04FB0C542705E1
:10097000029D4FEA065847EA1637B5EB08056EEBBD
:10098000070C870E920E47EA811742EA8312A7FBF3
:100990000201B6EB0B0164EB00042B0D43EA0C33B0
:1009A0005E1844EB1C50DA465146E7FB0201C5F3E2
:1009B00013044FEA0B3343EA14534FEA0432019C09
:1009C00043EA0603A4F10C040294009CCDE900B4B0
:1009D000FFF79FFE03B0BDE8F08F00200146F9E766
:1009E000C1F30A52C1F3130140F2FF3341F4801105
:1009F0009A4202DA00200146704740F233439A429D
:100A0000A2F2334202DC5242FFF759BC00F02AB88E
:100A100030B5041E71F1000404DB4FF00044404285
:100A200064EB0101141E73F1000405DB1C464FF05A
:100A30000043524263EB0403994208BF904230BD29
:100A4000064C074D06E0E06840F0010394E807001B
:100A500098471034AC42F6D3FFF76EFB405A0008BB
:100A6000605A0008202A04DB203A00FA02F1002034
:100A700070479140C2F1200320FA03F319439040DC
:100A80007047202A06DBCB17203A41FA02F043EAEE
:100A9000E07306E041FA02F3D040C2F12002914037
:100AA00008431946704710B504F0F2FE002010BD4F
:100AB00070B5044600688168C943C90717D18168C9
:100AC00021F00101816000F02BFB05460AE000BF28
:100AD00000F026FB401B022804D920688068C04330
:100AE000C00706D020688068C043C007F0D000204F
:100AF00070BDA06A40F01000A062E06A40F0010002
:100B0000E062012070BDFEE7704772B6FEE70000AC
:100B1000F8B50024009490F824202546012A12D02C
:100B2000012280F824204A681F23072A0DD2066874
:100B3000776B521E02EB820293409F430B689340F7
:100B40001F43776319E00220F8BD06680D2A0AD218
:100B5000376BD21F02EB820293409F430B68934096
:100B60001F43376309E0F76A0D3A02EB82029340B4
:100B70009F430B6893401F43F7620A680723066888
:100B80000A2A0AD3F7680A3A02EB420293409F43CB
:100B90008B6893401F43F76008E0376902EB42021D
:100BA00093409F438B6893401F4337610A68102A24
:100BB00001D0112A20D1124B02689A4217D19368B2
:100BC0001B0219D4936843F4000393600968102949
:100BD00012D10C490C4A0968B1FBF2F101EB810119
:100BE000490000E0491E00910029FBD104E0816A20
:100BF00041F020018162012480F824502046F8BD94
:100C0000002401401000002040420F002DE9F04177
:100C100004004FF000057FD0A06A002628B9E662E4
:100C200084F82460204600F081F82046FFF740FF5A
:100C3000A16AC90600D420B1A06A40F01000A062E9
:100C40006AE0A16A21F4885141F00201A1623349AE
:100C500023688B42E16904D1B1F5402F01D14FF4F3
:100C60000021277B4FF4807C41EA470261680A43F8
:100C7000A168614508D0012906D0002194F814E04C
:100C8000BEF1010F02D00AE06146F7E7C7B1A76ADB
:100C900047F02007A762E76A47F00107E7625F684D
:100CA00027F469470F435F60236899681C4F3940F8
:100CB00011439960A16861450BD0012909D00CE06E
:100CC000DFF860E0A7690EEB47370F4347F4006198
:100CD000E5E7218A0D05A5F580152168CB6A23F487
:100CE00070032B43CB62216889680F4B19409142F6
:100CF00008D1E662A16A21F0020141F00101A1627E
:100D0000BDE8F081A06A20F0020040F01000A0626F
:100D1000E06A40F00100E0620120F1E7003C0140A0
:100D2000FDF7E1FF00E0FFFFFE0E1FFF10B586B0EC
:100D300000210091019102910391006815498842B8
:100D400026D11548816941F400718161816901F4FE
:100D500000710491816941F010018161816901F0A4
:100D600010010491816941F00401816180690324CB
:100D700000F0040004903F20CDE9000469460748D4
:100D800000F0CCF8009469460548019400F0C6F8DC
:100D900006B010BD002401400010024000100140C8
:100DA0000008014010B590F821100022022905D05A
:100DB0000421816380F82020012010BD01680B68A8
:100DC00023F00E030B6001680B6823F001030B6036
:100DD00090F84030C46B012101FA03F3636080F89E
:100DE000211080F82020104610BD00002DE9F05F92
:100DF00090F821100024022903D0042181630124EA
:100E000085E001680A6822F00E020A6001680A683B
:100E100022F001020A603F4E3E4FB215DFF8F4C0E7
:100E2000DFF8F090DFF8ECA0DFF8E8B0DFF8E4E0FE
:100E30000168783F13011502ACF1640CA9F1500967
:100E4000AAF13C0AABF1280BAEF1140E4FF4801856
:100E5000B14227D9B9420ED0614512D049451DD0C3
:100E6000514518D0594518D0714501D1424615E079
:100E7000294EB14201D1012210E0274E1436B14271
:100E800001D110220AE0244E2836B14206D0224A6F
:100E90003C32914201D11A4600E02A461E49091F00
:100EA0000A602BE0B94213D0614517D0494522D0E2
:100EB00051451DD059451DD0714501D142461AE01A
:100EC000B14202D14FF0807215E0134EB14201D110
:100ED000012210E0104E1436B14201D110220AE076
:100EE0000D4E2836B14206D00B4A3C32914201D118
:100EF0001A4600E02A46074980394A60012180F8F5
:100F00002110002180F82010416B01B18847204654
:100F1000BDE8F09F80000240080402402DE9F84F30
:100F2000DFF8C891002409F1040A0AF1040B2346F2
:100F30000F270BF1040ED1E00125A54006EA0502BA
:100F4000AA4276D1DFF8A8C14E68A6EB0C08664528
:100F50002BD00DDC032E34D005DC36B3012E19D096
:100F6000022E2FD11BE0112E16D0122E2AD119E0FD
:100F7000B8F5881F19D006DCB8F5803F15D0B8F554
:100F8000801F1FD111E0B8F5001F0ED0B8F5041F67
:100F900018D10AE0CB6815E0CB681B1D12E0CB68C6
:100FA00008330FE0CB680C330CE08B682BB1012BBE
:100FB0004FF0080303D0456104E0042302E005611B
:100FC00000E00023FF2A01D8064601E000F10406F4
:100FD0004FEA840501D9A5F12005D6F8008007FA6B
:100FE00005FC28EA0C0803FA05F548EA0508C6F8E6
:100FF00000804D68ED0070D53E4DAE6946F00106AB
:10100000AE61AD6924F0030605F0010500953A4D87
:1010100006EB050CDCF80850A607360F07FA06F8B1
:1010200025EA0805DFF8D480404503D14FF00008D9
:1010300025E052E0DFF8C880404502D14FF00108BA
:101040001DE0DFF8C080404502D14FF0020816E0F5
:10105000DFF8B480404502D14FF003080FE0DFF81D
:10106000AC80404502D14FF0040808E0DFF8A080D2
:10107000404502D14FF0050801E04FF0060808FA9C
:1010800006F848EA0508CCF808804D68D9F80060F1
:10109000ED034D4601D5164300E096432E604D68A2
:1010A000DAF80060AD03554601D5164300E09643DB
:1010B0002E604D68DBF80060ED025D4601D51643F9
:1010C00000E096432E604D68DEF80060AD02754684
:1010D00001D5164300E096432E60641C0A6816464C
:1010E000E2407FF429AFBDE8F88F00000004014022
:1010F00000001110001002400000014000080140F3
:10110000000C014000100140001401400018014093
:10111000001C01400AB1016170470904FBE70000AF
:101120000148806870470000040000200248816880
:10113000027811448160704704000020074810B510
:10114000016841F010010160032000F08FF80F20CA
:1011500000F006F800F03EF8002010BD002002402C
:1011600000B5014687B000221C2000F05FF81C206B
:1011700000F04EF81448C16941F00101C161C06935
:1011800005A900F001000690684600F08DF900F016
:10119000B1F90E494000B0FBF1F10D484FF080422B
:1011A000491E0260416040F2E7320021C0E903219C
:1011B000816000F003FC10B1012007B000BD0448BD
:1011C00000F064FCF9E700000010024040420F000C
:1011D000600300200C4808B5816941F0010181617C
:1011E000816901F001010091C16941F08051C16143
:1011F000C06900F0805000900448416821F0E0612F
:1012000041F00071416008BD001002400000014043
:10121000002809DB00F01F020121914040098000F5
:1012200000F1E020C0F8001170470000F0B40E4B50
:101230001B680C46C3F30223C3F10705042D00D934
:101240000425191D072901D2002300E0DB1E012619
:1012500006FA05F1491E214099409E40761E16402F
:101260003143F0BC02F042BC0CED00E0064900F056
:10127000070208684FF6FF03184040EA0220034ABD
:1012800010430860704700000CED00E00000FA0514
:101290002DE9F84305460078354CC00754D0E06985
:1012A0000026C00008D4E06940F08050E061E069A9
:1012B000012600F0805000902E480168C90512D424
:1012C0000168804641F480710160FFF729FF0746FD
:1012D00005E000BFFFF724FFC01B642823D8D8F81F
:1012E0000000C005F6D5206A10F4407021D0A9880E
:1012F00001F4407181421CD0206A1F49012220F470
:1013000040700A6000220A602062C00711D0FFF717
:1013100007FF074641F2883808E000BFFFF700FFEB
:10132000C11B414502D90320BDE8F883206A80072C
:10133000F4D5206A696820F44070084320621EB129
:10134000E06920F08050E0612878800705D560686A
:10135000A96820F44040084360602878C00605D59D
:101360006068696920F48000084360600020DBE762
:101370000010024000700040400442422DE9F04756
:101380000F46050061D0434E306800F00700B842B8
:1013900009D2306820F0070038433060306800F030
:1013A0000700B84251D128683B4C810712D540074D
:1013B00003D5606840F4E06060602878000703D5DA
:1013C000606840F4605060606068A96820F0F000D8
:1013D000084360602878C00728D06868012810D0CA
:1013E0002168022810D0890700292EDA616821F0CF
:1013F000030101436160FFF793FE804641F28839A3
:101400000DE021688903EFE78901EDE7FFF788FE2A
:10141000A0EB0801494502D90320BDE8F0876068C8
:10142000696800F00C00B0EB810FEFD1306800F07C
:101430000700B8420BD9306820F00700384330600D
:10144000306800F00700B84201D00120E5E72878B5
:10145000400705D56068E96820F4E06008436060F3
:101460002878000706D56068296920F4605040EAB2
:10147000C100606000F05EF86168084AC1F30311C2
:10148000515CC8400649086006480068FFF768FEDE
:101490000020C2E70020024000100240F05800087F
:1014A00010000020080000200F2202600C4A536840
:1014B00003F003034360536803F0F0038360536851
:1014C00003F4E063C36052684FF4E06303EAD202BE
:1014D00002610448006800F00700086070470000DF
:1014E00000100240002002400148006870470000E0
:1014F000100000200448054900684968044AC1F307
:101500000221515CC84070471000002000100240CA
:10151000005900080448054900684968044AC1F3B5
:10152000C221515CC84070471000002000100240EA
:101530000059000812A185B00FC98DE80F0014A052
:10154000144A006804905168134801F00C03042BFE
:1015500010D0082B0ED1C1F38343C9031DF803003B
:101560000AD5516804AAC1F34041515C0A4A50436C
:10157000B0FBF1F005B0704708494843FAE70000B6
:1015800002030405060708090A0B0C0D0E0F1010C4
:10159000010200000010024000127A0000093D0024
:1015A0002DE9F84F040070D02078C04DC00749D015
:1015B0006868C0F38100012807D06868C0F3810023
:1015C000022809D16868C00306D52868800339D588
:1015D00060680028E7D035E06068B0F5803F0BD048
:1015E00010B1B0F5A02F11D0286820F48030286009
:1015F000286820F4802002E0286840F480302860C9
:10160000606890B1FFF78CFD06460AE0286840F458
:1016100080202860F0E700BFFFF782FD801B642870
:1016200073D828688003F7D50CE0FFF779FD0646EC
:1016300005E000BFFFF774FD801B6428F0D8286820
:101640008003F7D420789A4E80074FF001094FF0BD
:10165000000839D5686810F00C0F07D06868C0F32F
:101660008100022809D16868C00306D42868800771
:1016700014D52069012808D110E02069B0B1C6F85E
:101680000090FFF74DFD074605E00AE1FFF748FD32
:10169000C01B0228C4D828688007F7D5286861696C
:1016A00020F0F80040EAC10028600DE0C6F8008094
:1016B000FFF736FD074604E0FFF732FDC01B0228A6
:1016C00023D828688007F7D4207800072CD57948DC
:1016D000A169D9B1C0F80090FFF722FD074604E0E8
:1016E000FFF71EFDC01B02280FD8686A8007F7D5D8
:1016F00071484FF4FA510068B0FBF1F0009000BF60
:101700000098411E0091FAD20EE080E0C0F80080FF
:10171000FFF706FD074604E0FFF702FDC01B0228A5
:1017200075D8686A8007F7D42078400760D5E869E3
:101730000027C00008D4E86940F08050E861E869FB
:10174000012700F0805000905C480168C90513D45F
:101750000168834641F480710160FFF7E1FC824635
:1017600006E000BFFFF7DCFCA0EB0A0064284ED8BF
:10177000DBF80000C005F5D5E06801280AD008B103
:10178000052813D0286A20F001002862286A20F07A
:10179000040002E0286A40F001002862E06841F29B
:1017A000883B98B1FFF7BCFC82460BE0286A40F00A
:1017B00004002862EEE700BFFFF7B2FCA0EB0A01CD
:1017C00059455AD8286A8007F6D50CE0FFF7A8FCDF
:1017D000824605E0FFF7A4FCA0EB0A0159454CD86E
:1017E000286A8007F6D41FB1E86920F08050E861CC
:1017F000E06988B36968C1F38101022944D00228F5
:10180000C6F8608004D0FFF78BFC044638E034E073
:10181000FFF786FC074604E0FFF782FCC01B0228A6
:101820002BD828688001F7D4206AB0F5803F05D115
:101830006868A16820F4003008436860D4E90801B2
:101840000843696821F4741108436860C6F8609021
:10185000FFF766FC044606E025E000BFFFF760FCEA
:10186000001B022809D828688001F7D51BE000BFBB
:10187000FFF756FC001B022802D90320BDE8F88FB1
:1018800028688001F4D40EE00128F7D06868226A45
:1018900000F48031914204D1616A00F470108842F2
:1018A00001D00120EAE70020E8E700000010024034
:1018B00000004242800442421000002000700040BC
:1018C00010B5401EB0F1807F01D3012010BD4FF054
:1018D000E02460610F21601702F008F90020A06188
:1018E00007202061002010BD7047704710B590F8A8
:1018F0003C20012A22D0012280F83C20CA688C6852
:1019000022F4407222434C6822F4806222430C6825
:1019100022F4006222430C6922F4805222434C6973
:1019200022F400522243C969002322F480420A4370
:1019300001684A6480F83C30002010BD022010BDD0
:1019400070B590F83C20012A2CD0012480F83C404E
:10195000022280F83D2003685A689D6822F07006D4
:101960000A6832435A60104B02689A420ED00F4BFD
:101970009A420BD0B2F1804F08D00D4B9A4205D05D
:101980000C4B9A4202D00C4B9A4204D1496825F084
:1019900080031943916080F83D40002180F83C109D
:1019A000084670BD022070BD002C0140003401408B
:1019B0000004004000080040000C004010B5040086
:1019C00003D094F83D0010B107E0012010BD0020C5
:1019D00084F83C00204600F01FF8022084F83D0007
:1019E000211D206801F0FAFD012084F8460084F8EA
:1019F0003E0084F83F0084F8400084F8410084F8F9
:101A0000420084F8430084F8440084F8450084F8D8
:101A10003D00002010BD000008B5174A01681748B6
:101A2000914207D1816941F400618161806900F4CC
:101A3000006009E0124A914208D1C16941F00201F7
:101A4000C161C06900F00200009008BD0D4A9142DA
:101A500007D1C16941F00401C161C06900F004000F
:101A6000F2E7094A9142F0D1816941F40051816164
:101A7000806900F40050E7E7002C014000100240AC
:101A800000040040000800400034014090F83D1080
:101A9000012901D001207047022180F83D10016822
:101AA000CA6842F00102CA6000680E4988420ED03E
:101AB0000D4988420BD0B0F1804F08D00B498842C5
:101AC00005D00B49884202D00A49884204D1816876
:101AD00001F00701062903D0016841F0010101600E
:101AE00000207047002C01400034014000040040F9
:101AF00000080040000C004070B5044690F83C001F
:101B0000012817D0012584F83C50022084F83D00BC
:101B10002068826822F0770222F47F42826008689F
:101B2000502830D00DDC20284DD005DC98B310288B
:101B30003BD148E0022070BD302844D0402834D149
:101B400039E0602828D0702806D0B0F5805F2CD00E
:101B5000B0F5005F29D10AE0CB68D1E90121206806
:101B600001F08FFD2068816841F0770109E0CB68C2
:101B7000D1E90121206801F084FD2068816841F4E9
:101B80008041816011E0CA684968206801F04EFE1A
:101B90005021206807E016E0CA684968206801F013
:101BA00056FE6021206801F076FD84F83D5000204B
:101BB00084F83C0070BDCA684968206801F036FEB0
:101BC00040212068EFE7226801461046EBE77047A6
:101BD00070B50446006801694FF00005C9438907E4
:101BE00015D4C168C943890711D4E91E01610120D8
:101BF0002077206880698007204602D0FFF7E7FF42
:101C000004E000F01FF9204600F0AEF925772068C7
:101C10000169C943490717D4C168C943490713D4A7
:101C20006FF004010161022020772068806910F4C0
:101C3000407F204602D0FFF7CAFF04E000F002F91F
:101C4000204600F091F9257720680169C94309070A
:101C500016D4C168C943090712D46FF008010161A5
:101C6000042020772068C0698007204602D0FFF753
:101C7000AEFF04E000F0E6F8204600F075F92577A5
:101C800020680169C943C90617D4C168C943C90698
:101C900013D46FF010010161082020772068C0691B
:101CA00010F4407F204602D0FFF791FF04E000F0DF
:101CB000C9F8204600F058F9257720680169C94322
:101CC000C90708D1C168C943C90704D1891E016188
:101CD000204600F0A5F920680169C943090609D426
:101CE000C168C943090605D46FF08001016120462F
:101CF000FFF7FAFD20680169C943490609D4C168A4
:101D0000C943490605D46FF040010161204600F047
:101D10008EF920680169C94389060BD4C168C9439B
:101D2000890607D46FF0200101612046BDE87040AC
:101D3000FFF7DBBD70BD000030B585B0002100911C
:101D40000191029103910068344A3549022490427E
:101D50001BD1886940F0400088618869694600F0BD
:101D6000400004904FF4D440CDE900042D48039482
:101D7000FFF7D4F82C48416821F0C00141F0E06140
:101D800041F0C001416005B030BD284A284D904265
:101D90001DD1886940F004008861886900F0040062
:101DA0000490886940F0080088618869694600F0FD
:101DB00008000490C020CDE900041E480394FFF7FA
:101DC000ADF80320CDE900046946039410E01A4BF6
:101DD0004FF47072984210D1886940F00800886111
:101DE0008869CDE9002400F00800CDE90340694688
:101DF0004FEA0500FFF792F8C5E7104B9842C2D1B1
:101E0000886940F0100088618869CDE9002400F0FD
:101E10001000CDE9034069460948EBE7002C01407A
:101E20000010024000180140000001400004004082
:101E3000000C01400008014000080040003401404F
:101E400000100140704770B5044690F83C000D4604
:101E500001280AD0012084F83C0042B1042A18D09D
:101E6000082A2AD00C2A4DD139E0022070BD206802
:101E700001F01AFC2068816941F008018161206845
:101E8000816921F004018161206881692A69114317
:101E900011E0206801F038FC2068816941F400619C
:101EA00081612068816921F4806181612068816994
:101EB0002A6941EA0221816124E0206801F05AFC8C
:101EC0002068C16941F00801C1612068C16921F041
:101ED0000401C1612068C1692A69114311E02068C9
:101EE00001F07CFC2068C16941F40061C161206897
:101EF000C16921F48061C1612068C1692A6941EA30
:101F00000221C161002084F83C0070BD10B50400BE
:101F100003D094F83D0010B107E0012010BD00206F
:101F200084F83C00204600F01EF8022084F83D00B2
:101F3000211D206801F052FB012084F8460084F83E
:101F40003E0084F83F0084F8400084F8410084F8A3
:101F5000420084F8430084F8440084F8450084F883
:101F60003D00002010BD70477047000010B50446CA
:101F7000022249B104290ED0082913D094F8410057
:101F8000012816D0012010BD94F83E000128F9D197
:101F900084F83E200FE094F83F000128F2D184F845
:101FA0003F2008E094F840000128EBD184F840205D
:101FB00001E084F841200122206801F055FB13491B
:101FC0002068134A884201D0904203D1436C43F405
:101FD00000434364206888420DD090420BD0B0F19A
:101FE000804F08D00B49884205D00B49884202D067
:101FF0000A49884204D1816801F00701062903D00B
:10200000016841F001010160002010BD002C014079
:10201000003401400004004000080040000C004073
:102020000068B0F1804F01D1FFF780B8704770476A
:1020300070477047F8B5026804461068D168536964
:1020400010F00F0F4FF0000553D003F0010601F41C
:10205000907737435FD0C20705D0CA0503D5226CFD
:1020600042F001022264420705D5DA0703D0226C50
:1020700042F002022264820705D5DA0703D0226CFF
:1020800042F004022264020707D501F02002324325
:1020900003D0226C42F008022264226C002A34D061
:1020A000800604D5880602D5204601F009FC206888
:1020B0004069216CC0F38010090700D430B320467A
:1020C00001F0E6FB2068416949061BD5416921F012
:1020D00040014161A06BA8B158494163A06BFEF774
:1020E00085FE002811D0A06B416B01B0BDE8F04027
:1020F000084783060FD58B060DD52046BDE8F8406E
:1021000001F0DEBB2046FFF794FFF8BD2046FFF745
:1021100090FF2564F8BD266B2023012E52D1C60600
:1021200050D5CE064ED510685068009050694006D4
:102130002AD5A16B086840680004000CEAD0A68D7F
:102140008642E7D9E0858869202818D0D06820F435
:102150008070D0602068416921F0010141612068F0
:10216000416921F04001416184F83E3025632068D7
:10217000C16821F01001C160A06BFEF713FEA08DB5
:10218000E18D401A81B219E0A08DE18D401A81B233
:10219000E08D0028BED00029BCD0D06820F490701B
:1021A000D0602068426922F00102426184F83E302A
:1021B00025632068C26822F01002C2602046FFF743
:1021C00037FFF8BD05062BD50D0629D594F83D003F
:1021D0002128F6D1A068B0F5805F01D12069B0B1A7
:1021E000206A411C2162216800784860E08C401E12
:1021F0000004000CE084E4D12068C16821F0800173
:10220000C1602068C16841F04001C160F8BD206A2A
:102210000088C0F308005060206A801C2062E5E757
:102220004006F3D54806F1D5D168204621F040019B
:10223000D16084F83D3000F09AF9F8BD813800088B
:1022400070B5040004D094F83D00002510B106E0FC
:10225000012070BD84F83C50204600F023F8242073
:1022600084F83D002068C16821F40051C160204617
:1022700001F082FB2068016921F49041016120682E
:10228000416921F02A0141612068C16841F400518F
:10229000C1602564202084F83D0084F83E000020C1
:1022A00070BD0000F0B585B0002400940194029444
:1022B0000394D0F800C0614961485F4F0D150222B8
:1022C0000323C614BC4527D1CF6947F40027CF614B
:1022D000CF6907F4002704978F6947F010078F61D3
:1022E000896901F01001CDE90331CDE90052694659
:1022F0000546FEF713FECDE90064694628460294C0
:10230000FEF70CFE002211463420FEF78FFF34202A
:10231000FEF77EFF05B0F0BDDFF828E10427F445A5
:1023200024D1CD6945F48015CD61CD6905F48015C2
:1023300004958D6945F010058D618D6905F01005D6
:1023400004958D6945F020058D618969039301F03D
:1023500020010491B902CDE900126946FEF7DEFDC5
:10236000CDE9007469463848029421E0DFF8DCE0EA
:102370003748F4451FD18E6946F480468E618E69D8
:1023800006F4804604968E6946F004068E618969DB
:10239000039301F0040104914115CDE9001269464F
:1023A0000646FEF7BBFDCDE900546946304602946F
:1023B000FEF7B4FDAEE7DFF89CE0F4451AD1CD6935
:1023C00045F40035CD61CD6905F4003504958D697E
:1023D00045F004058D618969054601F00401CDE9E8
:1023E0000331CDE900726946FEF798FD0820CDE97A
:1023F00000041CE0184884458CD1C86940F4802052
:10240000C861C86900F480200490886940F0080021
:1024100088618869CDE9005200F00800CDE90330F9
:102420000E4D69462846FEF779FDCDE90064694600
:1024300028460294BCE70000004C00400010024017
:1024400000100140005000400014014000380140DD
:10245000000801400044004000480040000C0140DA
:1024600090F83E30202B0ED159B152B190F83C304B
:10247000012B08D0012380F83C300023036301F0D6
:10248000D7BA01207047022070470000084910B5F4
:1024900088420BD1012207490548FFF7E1FF0648B2
:1024A0000068BDE81040C0B200F006BA10BD0000E0
:1024B0000C02002000000020044C00402DE9F843ED
:1024C000044690F83D001F4616460D4620284CD184
:1024D000C5B1BEB194F83C00012846D0012084F873
:1024E0003C004FF00008C4F84080212084F83D00F3
:1024F000FEF716FEA6848146E684A068B0F5805FEC
:1025000003D004E00120BDE8F883206928B12E46FD
:102510005FF0000584F83C800EE00026FAE7802199
:10252000204601F0A0FAA0B9AEB116F8010B21685F
:102530004860E08C401EE084E08C4B464FF0000287
:1025400000970028EBD14FF04001204601F08BFAB4
:1025500030B10320D7E735F8020BC0F30800E6E7F7
:10256000202084F83D000020CDE70220CBE7704713
:1025700010B50246DDE90234436100F08AF94C618E
:1025800000F087F9136100F084F95361BDE8104051
:1025900000F07FB910B50246DDE90234436100F076
:1025A00078F90C6100F075F9136100F072F953616C
:1025B000BDE8104000F06DB90FB42DE9FE4F0DF1EC
:1025C000400CDDE914969CE83001139FCDE90045ED
:1025D000DDE90E2382468B4600F0F9F8002846D04C
:1025E0008DE83001DDE90E235946504600F036F9FA
:1025F000CDE90045DDE90E235946504600F014F9B7
:1026000060B38DE83002DDE90E235946504600F0F4
:1026100025F9CDE90045DDE90E235946504600F085
:1026200003F9D8B1CDE90045DDE90E2359465046FE
:1026300000F0CDF848F001000094CDE90150DDE94B
:102640000E235946504600F009F9CDE90045DDE971
:102650000E235946504600F0E7F840BBCDE900454F
:10266000DDE90E235946504600F0CCF80020BDE8C5
:10267000FE0F5DF814FB00BF00F025F807F8010B12
:10268000CDE90045DDE90E23012E5946504602D919
:10269000FFF76EFF09E0FFF77DFFCDE90045DDE9BB
:1026A0000E235946504600F0ADF8761EB6B2CDE97D
:1026B0000045DDE90E2359465046002EDCD100F0DE
:1026C000A1F80120D3E770B50825DDE904460346EB
:1026D00000220E610CE05006020E5C6100F0D9F899
:1026E0001C6100F0D6F88868304201D042F0010247
:1026F0006D1EEDB2EFD25C61104670BD0349016002
:10270000082241601021C0E904217047000C0140FB
:102710000FB42DE9FE4F0DF1400CDDE913769CE876
:102720003001CDE9004581468A4693460F9B00F073
:102730004EF800283CD08DE830015A4651464846B4
:102740000F9B00F08BF8CDE900455A4651464846AC
:102750000F9B00F069F878B38DE8B0005A465146F7
:1027600048460F9B00F07AF8CDE900455A4651469D
:1027700048460F9B00F058F88DE870005A465146C5
:1027800048460F9B00F06AF8CDE900455A4651468D
:1027900048460F9B00F048F8CDE900455A4651469F
:1027A00048460F9B00F02EF8012000F078F8012039
:1027B000BDE8FE0F5DF814FBFFE7CDE900455A4682
:1027C000514648460F9B00F01DF80020F0E700B589
:1027D000DDE901320A61036100F05BF8886850B1FD
:1027E0000020104205D14A6100F053F88868104279
:1027F00003D0002000BD0120F3E74A6100F049F852
:10280000012000BD10B50246DDE90234436100F04D
:1028100040F84C6100F03DF8136100F03AF80C61AB
:10282000BDE8104000F035B810B50246DDE90234CD
:10283000436100F02EF80C6100F02BF8136100F0FA
:1028400028F888685361204203D000F022F8002065
:1028500010BD00F01EF8012010BD000070B5034649
:10286000DDE904460822069D0EE000BF00F011F8E5
:10287000280601D50E6100E04E616806050E00F0E5
:1028800008F81C6100F005F8521ED2B25C61EDD26E
:1028900070BD1E20401E10F0FF00FBD1704741F2BA
:1028A00088314843002102E0401E41F1FF3150EAE7
:1028B0000102F9D1704700002DE9F04150494F4A1B
:1028C0000B78D0545B1CD8B2087014780023552CB8
:1028D00002D00B70BDE8F0810B28FBD3474852783B
:1028E0002438512A04D0522A0AD0532A17D10FE093
:1028F00050F8262FC1F802204068C1F806000EE00B
:1029000050F8262FC1F80A204068C1F80E0006E0F2
:1029100050F8262FC1F812204068C1F81600384D33
:102920000B70AD1CB5F90000FDF72EFE6FF00E0622
:102930003146FDF7AEFD0421FDF7ABFD2F4C243CE5
:102940002060B5F90200FDF71FFE3146FDF7A1FD3D
:102950000421FDF79EFD6060B5F90400FDF714FE4B
:102960003146FDF796FD0421FDF793FD0835A06083
:10297000B5F90000FDF708FE3146FDF78AFD214F4D
:102980003946FDF716FDE060B5F90200FDF7FCFDE4
:102990003146FDF77EFD3946FDF70BFD2061B5F9A7
:1029A0000400FDF7F1FD3146FDF773FD3946FDF7F3
:1029B00000FD08356061B5F90000FDF7E5FD314621
:1029C000FDF767FD104F3946FDF7F3FCA061B5F93F
:1029D0000200FDF7D9FD3146FDF75BFD3946FDF7F5
:1029E000E8FCE061B5F90400FDF7CEFD3146FDF7E6
:1029F00050FD3946FDF7DDFC20626BE7CC0300207B
:102A0000140000200000FA44000034432DE9F84F80
:102A10006A4E4FF000087089F28841426848406869
:102A200000EB0124A2FB040308FB0431E71702FBBF
:102A300007114FF480724346FDF710FC7288530C67
:102A4000D20310EB020B328941EB0309A2FB040312
:102A500008FB043102FB071180220023FDF7FEFB77
:102A6000B288130C120410EB020AB28941EB030581
:102A7000A2FB040308FB043102FB07114FF4000220
:102A80000023FDF7EBFB4FF4FA6146184C48C446AF
:102A9000866003680093A3FB0B080CFB0B8203FB0F
:102AA00009214FF4001842464FF00003FDF7D6FB12
:102AB000B0EB0A0061EB05014FF400520023FDF773
:102AC000CDFB3F493E4A0023C8603C48526881899B
:102AD0004089404202EB0022A1FB020C03FB02C230
:102AE00001FB07214FF40002FDF7B8FB4FF4FA6138
:102AF0004718A7F5FA67B6F5FA6F2EDA84FB0412C9
:102B00000323A1FB030C02FB03C2002401FB0421ED
:102B100022460223FDF7A2FB7F4307EB8702D31770
:102B200002EB5372642396FBF3F307EB470101EBCF
:102B3000D1714910D21013F10F0F1BDA06F2DC53DA
:102B400003FB03F4C4EBC4042144B40040F2DC579B
:102B500004EB870404FB03220CE064436000C1170C
:102B600000222023FDF77AFB7F43F91707EB117151
:102B700009110022BAEB010465EBE1754FEAE27737
:102B8000BBEB020269EB07010D4F301A0026B8605B
:102B9000009BA3FB020C06FB02C203FB0121424681
:102BA0003346FDF75BFB001B61EB05014FF4005260
:102BB0000023FDF753FBF860BDE8F88FC804002040
:102BC000300000202DE9F04387B0EC260025482096
:102BD00002962E4CCDE90305D4E908011034CDE965
:102BE000000194E80F00103CFFF792FD1420FFF75E
:102BF00056FE0DF1180903A903274846029681E8FD
:102C0000A100D4E908011034CDE9000194E80F00D7
:102C1000103CFFF7D1FC9DF818009DF81910000436
:102C200040EA01209DF81A10DFF864800843C8F8D4
:102C3000000058200296CDE90305D4E908011034BC
:102C4000CDE9000194E80F00103CFFF761FD14206E
:102C5000FFF725FECDE90457CDE90269D4E9080163
:102C60001034CDE9000194E80F00FFF7A5FC9DF8B2
:102C700018009DF81910000440EA01209DF81A1070
:102C80000843C8F8040007B0BDE8F083C80400207A
:102C9000300000202DE9F04188B05448FFF72EFDA8
:102CA0001E20EC25514CCDE90250103C0490D4E993
:102CB00008011034CDE9000194E80F00103CFFF743
:102CC00027FD0DF1180803AA0226A021404602950F
:102CD00082E84300D4E908011034CDE9000194E80A
:102CE0000F00103CFFF768FCBDF81800274640BAFB
:102CF0003880A221CDE90416CDE90258D4E90801B3
:102D00001034CDE9000194E80F00103CFFF754FCAB
:102D1000BDF81800A42140BA7880CDE90416CDE9A9
:102D20000258D4E908011034CDE9000194E80F00FD
:102D3000103CFFF741FCBDF81800A62140BAB8804E
:102D4000CDE90416CDE90258D4E908011034CDE9E3
:102D5000000194E80F00103CFFF72EFCBDF81800AE
:102D6000A82140BAF880CDE90416CDE90258D4E98B
:102D700008011034CDE9000194E80F00103CFFF782
:102D80001BFCBDF81800AA2140BA3881CDE9041611
:102D9000CDE90258D4E908011034CDE9000194E8E6
:102DA0000F00103CFFF708FCBDF81800AC2140BA3A
:102DB0007881CDE90416CDE90258D4E90801103430
:102DC000CDE9000194E80F00FFF7F6FBBDF818000D
:102DD00040BAB88100F00EF805490868C86020467E
:102DE00001690068416108B0BDE8F081D8040020A5
:102DF0004000002010B5FFF7E5FEFFF707FE00F0EA
:102E00003DF8064C606000F00DF8E168FDF7CBFA84
:102E10002060034800F020F8A06010BD40000020B2
:102E20000000C84210B5084800F016F80749FDF741
:102E3000BAFAFDF7B2FB064A064BFDF736FBBDE8D2
:102E40001040FDF7BDBB00000000C84200DAC547D6
:102E5000394547729D18C34010B504460548C068FF
:102E6000FDF792FB0449FDF7D6FA2146BDE8104074
:102E7000FDF79FBA3000002000002041044810B543
:102E80008068FDF781FBBDE810400249FDF7C3BA39
:102E9000300000200000C8423EB5002410480094D5
:102EA000019402940D498460016004730475012546
:102EB00005614FF460214460C161FDF7A7FE08B1D0
:102EC000FDF723FECDE90045694605480294FDF76C
:102ED0001FFE002801D0FDF718FE3EBD0024014072
:102EE000BC0000202DE9F04F85B000244648009436
:102EF000019402940394816941F0400181618169E8
:102F000001F040010491816941F010018161816902
:102F100001F010010491816941F00401816181692E
:102F200001F004010491816941F008018161816926
:102F300001F008010491816941F0200181618069FB
:102F4000324F00F020000490012204213846FEF7A1
:102F5000E1F800224FF218012D48FEF7DBF8DFF808
:102F6000B4A04FF48049002249465046FEF7D2F8FB
:102F7000DFF8A4B04FF40048012241465846FEF75E
:102F8000C9F8012220212248FEF7C4F804200125B7
:102F90000226CDE90005CDE9024669463846FDF72F
:102FA000BDFF47F22000CDE90005CDE902466946A4
:102FB0001748FDF7B3FF0327CDF800800397CDE94D
:102FC000015469461248FDF7A9FFCDF80090039718
:102FD000CDE9015469465046FDF7A0FFCDF80080C9
:102FE0000396CDE9015469465846FDF797FF18202E
:102FF000009001AA112082E8910069460448FDF77B
:103000008DFF05B0BDE8F08F0010024000180140B0
:10301000000C0140001401400008014010B596B0BA
:1030200000240F9410941194129413941C21684658
:103030001494FDF75BF9202107A8FDF757F93648EE
:103040003449016040F2CF21C0E9011440F2CF7150
:10305000C0E9031444618461FEF7B0FC08B1FDF7D8
:1030600054FD4FF480500F900FA92B48FEF744FDFC
:1030700008B1FDF74AFD2848FEF748FF08B1FDF703
:1030800044FD139413A924481494FEF759FC08B185
:10309000FDF73BFD602000904FF47A70CDE901040C
:1030A000039404940594002269461B480694FEF795
:1030B000CAFE08B1FDF729FD042269461648FEF74D
:1030C000C2FE08B1FDF721FD082269461248FEF74D
:1030D000BAFE08B1FDF719FD0C2269460E48FEF74D
:1030E000B2FE08B1FDF711FD0794089409944FF45E
:1030F00000500A94CDE90B4007A907480E94FEF74B
:10310000F5FB08B1FDF701FD0348FEF715FE16B00B
:1031100010BD0000002C0140EC00002010B58EB066
:1031200000240794089409940A940B941C2168467F
:103130000C94FDF7DBF82C482A49016041F61F4149
:10314000C0E9011442F20F71C0E903148461FEF773
:1031500035FC08B1FDF7D9FC4FF48050079007A962
:103160002148FEF7C9FC08B1FDF7CFFC1E48FEF769
:10317000CDFE08B1FDF7C9FC0B940BA91A480C94BD
:10318000FEF7DEFB08B1FDF7C0FC6020009041F2C5
:103190008830CDE901040022694613480494FEF703
:1031A00052FE08B1FDF7B1FC042269460E48FEF755
:1031B0004AFE08B1FDF7A9FC082269460A48FEF755
:1031C00042FE08B1FDF7A1FC0C2269460648FEF755
:1031D0003AFE08B1FDF799FC0348FEF7ADFD0EB0CD
:1031E00010BD0000000400403401002010B58EB076
:1031F00000240794089409940A940B941C216846AF
:103200000C94FDF773F82C482A49016040F2CF2155
:10321000C0E9011440F2CF71C0E903148461FEF7E4
:10322000CDFB08B1FDF771FC4FF48050079007A962
:103230002148FEF761FC08B1FDF767FC1E48FEF768
:1032400065FE08B1FDF761FC0B940BA91A480C94BC
:10325000FEF776FB08B1FDF758FC6020CDE90004CD
:1032600002940022694614480494FEF7ECFD08B16C
:10327000FDF74BFC042269460F48FEF7E4FD08B158
:10328000FDF743FC4FF47A700190082269460A4822
:10329000FEF7D9FD08B1FDF738FC0C226946064857
:1032A000FEF7D1FD08B1FDF730FC0348FEF744FD01
:1032B0000EB010BD000800407C01002010B596B093
:1032C00000240F9410941194129413941C216846B6
:1032D0001494FDF70BF8202107A8FDF707F83648EE
:1032E0003449016040F2CF21C0E9011440F2CF71AE
:1032F000C0E9031444618461FEF760FB08B1FDF787
:1033000004FC4FF480500F900FA92B48FEF7F4FBFC
:1033100008B1FDF7FAFB2848FEF7F8FD08B1FDF704
:10332000F4FB139413A924481494FEF709FB08B185
:10333000FDF7EBFB602000904FF47A70CDE90104BB
:10334000039404940594002269461B480694FEF7F2
:103350007AFD08B1FDF7D9FB042269461648FEF74D
:1033600072FD08B1FDF7D1FB082269461248FEF74D
:103370006AFD08B1FDF7C9FB0C2269460E48FEF74D
:1033800062FD08B1FDF7C1FB0794089409944FF45E
:1033900000500A94CDE90B4007A907480E94FEF7A8
:1033A000A5FA08B1FDF7B1FB0348FEF7C5FC16B05E
:1033B00010BD000000340140C40100200C4810B5CD
:1033C0000A4901604FF416514160002181600C22CE
:1033D000C160C0E904128161C161FEF731FF0028BC
:1033E00003D0BDE81040FDF790BB10BD004C00407D
:1033F0000C0200200C4810B50A4901604FF4E1317D
:103400004160002181600C22C160C0E90412816129
:10341000C161FEF715FF002803D0BDE81040FDF79D
:1034200074BB10BD00500040500200200C4810B585
:103430000A4901604FF4E1314160002181600C22B2
:10344000C160C0E904128161C161FEF7F9FE002884
:1034500003D0BDE81040FDF758BB10BD0038014057
:10346000940200200C4810B50A4901604FF4E13184
:103470004160002181600C22C160C0E904128161B9
:10348000C161FEF7DDFE002803D0BDE81040FDF766
:103490003CBB10BD00440040D80200200C4810B5D1
:1034A0000A4901604FF4E1314160002181600C2242
:1034B000C160C0E904128161C161FEF7C1FE00284C
:1034C00003D0BDE81040FDF720BB10BD0048004010
:1034D0001C030020FEE7FEE710B501F063FB01F0DE
:1034E000B5FEBDE8104001F06BBB30B595B02821AA
:1034F0006846FCF7FBFE14210AA8FCF7F7FE18212A
:103500000FA8FCF7F3FE01210804CDE90010002507
:10351000029502240491CDE907404FF4E010099090
:103520006846FEF73DF808B172B6FEE70AA90F201B
:1035300081E831004FF48060CDE90D0502210AA831
:10354000FDF71CFF08B172B6FEE74FF40040119082
:103550000F940FA8FDF79CFE002801D072B6FEE77D
:1035600015B030BD144910B54868144A10F00C036A
:10357000134803D0042B01D0082B09D002604968FE
:10358000104AC1F30311515C0268CA40026010BDC9
:103590004A684B6802F470124FF0020413F4803F43
:1035A00004EB924202D04B689B0301D5064B00E02E
:1035B000024B5A43E2E700000010024000127A007A
:1035C00010000020F058000800093D00704700007E
:1035D0000148FEF7FDBA000060030020F0B5026864
:1035E0001C4B1D4D1D4E1E4F1E4C4FF0804C9842E3
:1035F00009D0A04207D0604505D0A84203D0B04210
:1036000001D0B84204D122F0700E4A6842EA0E029C
:10361000984209D0A04207D0604505D0A84203D007
:10362000B04201D0B84203D122F44075CA682A439F
:103630004D6922F080022A4302608A68C2620A68E9
:103640008262984201D0A04201D10969016301213F
:103650004161F0BD002C0140000400400008004022
:10366000000C00400034014010B501F01F0301219F
:10367000046A99408C430462016A9A4011430162D2
:1036800010BD10B5846842EA032224F47F440A4343
:103690002243826010BD826822F070020A4342F029
:1036A0000701816070470000F0B5026A22F0010254
:1036B0000262036A42688469124E24F073050C6842
:1036C0002C4323F002058B682B430D4DA84201D0FB
:1036D000B04205D123F00807CB683B4323F0040335
:1036E000A84201D0B04205D14D6922F44072154381
:1036F0008A692A4342608461496841630362F0BD7C
:10370000002C014000340140F0B5026A22F01002A2
:103710000262026A436884690D6824F4E64444EA5C
:1037200005248D6822F0200242EA05120F4D104E4A
:10373000A84201D0B04206D1CF6822F0800242EA0E
:10374000071222F04002A84201D0B04207D14D69D1
:1037500023F4406343EA85038D6943EA85034360AC
:103760008461496881630262F0BD0000002C014061
:1037700000340140F0B5026A22F480720262026AEB
:103780004368C46922F4007224F073050C68124E79
:103790002C438D6842EA05220E4DA84201D0B0426A
:1037A00006D1CF6822F4006242EA072222F4806246
:1037B000A84201D0B04207D14D6923F4405343EAF7
:1037C00005138D6943EA05134360C4614968C16309
:1037D0000262F0BD002C01400034014030B5026AA5
:1037E00022F480520262046A4268C3690D6823F4BD
:1037F000E64343EA05238D6824F4005444EA053483
:10380000084DA84202D0084DA84204D14D6922F4C7
:10381000804242EA85124260C361496801640462E1
:1038200030BD0000002C01400034014010B5036A97
:10383000046A24F001040462846924F0F00444EA78
:10384000021423F00A020A438461026210BD10B51B
:10385000036A23F0100303628369046A23F470434C
:1038600043EA023224F0A00343EA011182610162BB
:1038700010BD00000148FEF7DDBB00000C02002077
:1038800010B5406A0021C185C184FEF7D2FB10BD8E
:103890000168CA6822F49072CA6001684A6922F01D
:1038A00001024A61016B012904D10168CA6822F052
:1038B0001002CA60202180F83E1000210163704789
:1038C00008B590F83E10222901D0022008BD826878
:1038D0004FF480539A4201D1016921B1816A9A4221
:1038E0001BD04AB10AE00268816A5268C2F308023A
:1038F0000A80816A891C08E0026972B10268526814
:1039000002F07F020A70816A491C8162C18D491EE2
:103910000904090CC18503D019E002685268F1E777
:103920000168CA6822F02002CA600168CA6822F4ED
:103930008072CA6001684A6922F001024A6120214E
:1039400080F83E10016B012903D0FEF79FFD002097
:1039500008BD002101630168CA6822F01002CA6034
:1039600001680A68D20602D50A6849680091818D0B
:10397000FEF75EFBEBE7000070B5044600680169E6
:10398000E26821F44051114301612169A0680843B4
:10399000616908432168CA6841F20C639A43024393
:1039A000CA6020684169A26921F4407111434161F4
:1039B0001E492068884202D1FDF7ACFD01E0FDF709
:1039C00099FD00EBC00101EB0012606864218000EA
:1039D000B2FBF0F3B3FBF1F36FF018067343B2FBE5
:1039E000F0F5B2FBF0F605EB8305322303EB05158A
:1039F000B5FBF1F5B6FBF1F605F0F00505EB0615A4
:103A0000B2FBF0F6B2FBF0F0B0FBF1F06FF0180291
:103A1000504306EB800003EB0010B0FBF1F021688F
:103A200000F00F002844886070BD0000003801409D
:103A300081628285C28500210164222280F83E20B5
:103A400080F83C100168CA6842F48072CA6001685C
:103A50004A6942F001024A610068C16841F02001F0
:103A6000C160002070472DE9F041984617460E4688
:103A70000446069D1DE0681C1BD02DB1FDF750FBD0
:103A8000A0EB0800A84214D92068C16821F4D071C5
:103A9000C1602068416921F001014161202084F862
:103AA0003D0084F83E00002084F83C000320BDE87F
:103AB000F0812068006836EA000004D00020B84297
:103AC000D9D00020F3E70120F9E7FEE70FB4054B5A
:103AD00010B503A9044A029800F00EF910BC5DF875
:103AE00014FB0000E9440008B80000200907090E93
:103AF000002804DB00F1E02080F80014704700F09B
:103B00000F0000F1E02080F8141D7047002807D056
:103B10000F4910F0FF0F05D0C0B2085C401C704781
:103B20000020704710F47F4F04D0C0F30720085CDA
:103B30000930704710F47F0F04D0C0F30740085CD1
:103B40001130704701EB10600078193070470000A9
:103B50000859000802E008C8121F08C1002AFAD15B
:103B600070477047002001E001C1121F002AFBD1FD
:103B7000704700002DE9FF5F82B00021DDE90430CD
:103B8000020DDDF840B0034318D044F61050A2F205
:103B9000FF3242431514119801281FD0A5EB0B00EA
:103BA000401C5FEA000A4FF000064E4FDFF83891E4
:103BB000B046504615D5CAF1000413E0119801240F
:103BC0004AA3012801D16FEA0B010298119AC0E9BA
:103BD0000031C0E9024206B0BDE8F09FCBF1000021
:103BE000DFE704460021404A491842EB0450CDE982
:103BF000001012E0E00707D032463B4640464946F7
:103C0000FCF77CFE8046894632463B461046194604
:103C1000FCF774FE06460F466410002CEAD1DDE97D
:103C20000401DDE90023BAF1000F06DAFCF766FEB5
:103C300042464B46FCF762FE05E0FCF736FC424686
:103C40004B46FCF732FC04460E460022284BFCF79C
:103C5000DFFE03D84FF0FF30014607E00022254B7E
:103C600020463146FCF7A3FDFCF7BAFE102409E01C
:103C7000002C0ADB0A220023FCF7D4FC039B303221
:103C80001A55641E50EA0102F2D1641C039AC4F171
:103C900011031444119A012A03D0012208430DD1C3
:103CA0000AE0084304D000204FF0110B119072E796
:103CB000A3EB0B056D1E0DE05B4504DD4FF000022C
:103CC00005F1010504E003DA4FF00002A5F101055A
:103CD000002AECD002981199C0E90231C0E90045F0
:103CE00079E70000000014400000F03F30000000C1
:103CF0000000F0430000E03F2DE9FF4F95B09B46E8
:103D00008946064600250FE2252877D1002427465C
:103D1000F84A0121059400E0044316F8013F203BD6
:103D200001FA03F01042F7D130782A2811D06FF051
:103D30002F033078A0F13002092A16D8059A44F0F2
:103D4000020402EB820203EB42021044761C05904F
:103D5000EFE759F8042B0592002A03DA504244F4A5
:103D60000054059044F00204761C30782E2816D1B9
:103D700016F8010F44F004042A280DD06FF02F022A
:103D80003078A0F13003092B09D807EB870302EB49
:103D90004303C718761CF3E759F8047B761C307888
:103DA0006C280FD006DC4C2817D068280DD06A2864
:103DB00014D104E0742810D07A280FD10DE044F417
:103DC00000140AE044F4801401E044F440147278D2
:103DD000824202D104F58014761C761C3078662865
:103DE0000BD013DC582877D009DC002875D0452883
:103DF000F6D04628F4D047281AD19DE118E0632870
:103E000035D0642879D0652812D195E1702873D017
:103E100008DC6728F1D069286FD06E280DD06F2894
:103E200006D1B5E073282CD0752875D0782874D0C9
:103E30005A46179990476D1C75E1C4F30250022849
:103E400009D003280DD0D9F8001004280DD00D603A
:103E500009F1040967E1D9F80010EA17C1E9005235
:103E6000F6E7D9F800100D80F2E70D70F0E719F8C9
:103E7000041B8DF8001000208DF80100EA46012097
:103E800003E059F804AB4FF0FF3061074FF0000139
:103E900002D40DE008F101018846B9420FDA8045ED
:103EA000F8DB1AF808100029F4D108E008F1010144
:103EB00088468142FADB1AF808100029F6D10598E5
:103EC0005B46A0EB080721463846179A00F094FAA3
:103ED000284400EB080507E04DE029E10DE01AF861
:103EE000010B5A4617999047B8F10108F7D25B4683
:103EF00021463846179A13E142E00A220092C4F3A1
:103F000002524FF0000A022A08D059F804CB032AC3
:103F10004FEAEC710AD00DE029E02AE009F107012F
:103F200021F00702F2E802C1914609E00FFA8CFC89
:103F30004FEAEC71042A03D14FFA8CFC4FEAEC7182
:103F4000002907DA0A460021DCF1000C61EB0201CE
:103F50002D2202E0220504D52B228DF80420012217
:103F600003E0E20701D02022F7E7904659E00A215A
:103F700002E010220DE010214FF0000A00910BE04A
:103F800010224FF0000A44F004040827009203E0D6
:103F900008224FF0000A0092C4F30252022A05D010
:103FA00059F804CB0021032A08D009E009F10701E0
:103FB00021F00702F2E802C1914605E01FFA8CFCED
:103FC000042A01D10CF0FF0C4FF00008220728D57D
:103FD000702806D0009B83F0100353EA0A0305D033
:103FE0000EE040228DF80420012208E05CEA010284
:103FF00006D030228DF804208DF80500022290466C
:10400000009B83F0080353EA0A030AD15CEA010229
:1040100001D1620705D530228DF804204FF0010848
:104020007F1E582804D034A003900EA802900DE003
:1040300036A0F9E753466046009AFCF7F3FA844647
:104040000398825C0298401E029002705CEA0100B4
:10405000F0D1029806A9081A00F1200A600702D5DB
:1040600024F4803400E00127574502DDA7EB0A0065
:1040700000E0002000EB0A01009005984144401A3E
:104080000590E00306D45B462146179A059800F098
:10409000B3F90544002706E001A85A46C05D179908
:1040A00090476D1C7F1C4745F6DBE0030CD55B4653
:1040B0002146179A059800F09FF9054404E0302046
:1040C0005A46179990476D1C0099481E0090002988
:1040D000F5DC08E0029802995A460078491C0291E2
:1040E000179990476D1CBAF10001AAF1010AF1DCA1
:1040F00065E10000092801003031323334353637AC
:104100003839616263646566000000003031323323
:1041100034353637383941424344454600000000C3
:1041200000F058F90544761C307800287FF4ECAD97
:1041300019B02846BDE8F08F620700D4062709F1C0
:10414000070222F0070CFCE80223E14603F00048D6
:104150005FEA080C02D00FF2702C0DE05FEA045CFD
:1041600002D50FF2682C07E05FEAC47C02D00FF2A0
:10417000602C01E0AFF2700C4FF0FF3823F00043E9
:10418000CDF850C065280CD006DC452809D046285B
:104190001DD047283DD13DE0662818D067287ED144
:1041A00038E00021112F01DB112000E0781CCDE95F
:1041B000000106A90EA8FFF7DDFCDDE90F010E9A4C
:1041C00003910021009207F1010A04914DE04FF0A4
:1041D00000400097CDE9011006A90EA8FFF7CAFC20
:1041E000DDE90F0203920E9B11990022DDF80CA06D
:1041F0000093049211B9791C00EB010AB7EB0A0095
:1042000004D4C0F1FF3007F1010A0490AAEB0700C3
:10421000019044E0012F00DA01270021112F01DD78
:10422000112000E03846CDE9000106A90EA8FFF7ED
:10423000A1FCDDE90F010E9A039100210491009287
:10424000BA4621070CD40399514500DA8A46BAF1DF
:10425000010F05DD009AAAF10101515C302908D057
:10426000B84202DA10F1040F06DA0121CDE901109B
:1042700015E0AAF10101E9E7002805DC04990144F1
:104280000491AAEB000102E0411C514500DD8A4681
:104290000499401A401C01904FF000400290200702
:1042A00004D40198504501DBCDF8048000208DF83E
:1042B0004F0002980DF14F07B0F1004F25D02B2091
:1042C0000E9002984FF0020800280CDA404202904B
:1042D0002D200E9007E00A210298FCF78DF930316D
:1042E000029007F8011DB8F10001A8F10108F2DC05
:1042F00002980028EFD1791E0E980870307800F0EF
:10430000200040F0450007F8020D12A8C01B00F184
:1043100007081498007800B1012000EB0A01019809
:1043200001EBE07105984144401A401E0590E003FE
:1043300006D45B462146179A059800F05DF80544BF
:104340001498007818B15A46179990476D1CE003ED
:1043500024D55B462146179A059800F04DF8054490
:104360001CE00498002807DBDDE90301884203DD37
:104370000098405C179901E0179930205A46904701
:10438000049805F10105401C04900198401E01901D
:1043900004D12E205A46179990476D1CBAF100019E
:1043A000AAF1010ADDDC05E017F8010B5A4617995E
:1043B00090476D1CB8F10001A8F10108F4DC5B46E0
:1043C0002146179A0598ABE62D0000002B0000004F
:1043D000200000002DE9F041044600251E46174646
:1043E000880404D405E039462020B0476D1C641EC3
:1043F000F9D52846BDE8F0812DE9F04104460025B5
:104400001E469046C80301D5302700E020278804C7
:1044100004D505E041463846B0476D1C641EF9D509
:104420002846BDE8F081000070B582B011469C4678
:10443000089E099D069B079A044604F114004060FB
:1044400000602162C4F824C0A362E26223211846FE
:1044500000F0D6FBE16AA06A104B0844021F616AB3
:10446000206A00F07FFBE06184F8366084F83560F4
:104470000020A063E5632564206384F8340020678E
:104480006067009001902346054A214604F14400EC
:1044900000F0B9FF02B0002070BD0000894F000895
:1044A00077510008DDF800C02CF0010C80F809C03D
:1044B000C161026200218162436200EBC1021432D9
:1044C00052601260491C0129F7DB704770B5044641
:1044D000FBF74AFE0546216F09B12046884728466A
:1044E000BDE87040FBF744BE13B54FF47A73012268
:1044F00069460248FDF7E2FF00981CBD500200200B
:1045000086B0FCF71BFEFEF7F0FFFEF7EBFCFEF7B4
:10451000C3FCFEF783FDFEF701FEFEF767FEFEF724
:10452000CDFEFEF74BFFFEF765FFFEF77FFFFEF7C0
:1045300099FFFEF7B3FF4148FDF7A8FA4048FDF7A1
:10454000A5FA4048FDF7A2FA3F48FDF79FFA00217F
:104550003A48FDF70BFD04213848FDF707FD082117
:104560003648FDF703FD0C213448FDF7FFFC002120
:104570003348FDF7FBFC04213148FDF7F7FC082127
:104580002F48FDF7F3FC0C212D48FDF7EFFC082127
:104590002C48FDF7EBFC0C212A48FDF7E7FC002135
:1045A0002948FDF7E3FC04212748FDF7DFFC08213B
:1045B0002548FDF7DBFC0C212348FDF7D7FC012241
:1045C00022492348FDF74CFFFEF764FB214C00BF56
:1045D000FEF710FCE068FBF7E0FF1F4D82468B46BC
:1045E0006868FBF7DAFF804689462869FBF7D5FF44
:1045F00006460F46286AFBF7D0FF8DE8C00F02463B
:104600000B4616A0FFF762FAA068FBF7C6FF074645
:1046100088466068FBF7C1FF05460E462068FBF739
:10462000BCFF8DE8E00102460B4616A0FFF74EFAEC
:104630004FF4FA7000F015FDCAE70000EC0000200E
:10464000340100207C010020C40100200000002073
:104650000C02002040000020A8030020616E676C5F
:10466000655F7A3D25662C6779726F3D25662C6102
:1046700063635F793D25662C6F66667365743D25BF
:10468000660D0A0064657074683D25662C74656D5E
:10469000703D25662C707265737572653D25660DDB
:1046A0000A00000010B500F0EFF8BDE81040FFF779
:1046B00027BF00002DE9F04F86B0DDF83CC0109D0B
:1046C000119CA846CDF800C014F0400F02D0DFF8CE
:1046D00048A101E0DFF844A114F0100F01D024F04C
:1046E000010414F0010F02D04FF0300901E04FF047
:1046F0002009002614F0020F0DD0002A02DA2D2620
:10470000524208E014F0040F01D02B2603E014F00D
:10471000080F00D020264FF0000C0DF1040B2AB931
:1047200030224FF0010C8DF804200DE00A2B16D03A
:1047300002F00F0712091AF807E067460CF1010CA6
:104740000BF807E0002AF1D1AC4500DD6546009A80
:10475000521B14F0110F4FF020070DD01CE0304F0A
:10476000A7FB02E74FEAD70ECEF1000707EB87075A
:1047700002EB47077246DEE716B1002A00DD521E43
:10478000131EA2F1010207DD884200D20770401C0F
:10479000131EA2F10102F7DC26B1884200D2067096
:1047A000521E401C14F0100F0CD1131EA2F1010276
:1047B00008DD884201D280F80090401C131EA2F14F
:1047C0000102F6DC6B1E65450FDD3024884200D205
:1047D0000470401C1D465B1E6545F7DC05E0884201
:1047E00002D21BF80C300370401CBCF10003ACF18A
:1047F000010C02DDB8F1000FF1D1531E002A07DDD4
:10480000884200D20770401C1A1EA3F10103F7DC96
:1048100006B0BDE8F08F0000195A0008085A0008D9
:10482000CDCCCCCC10B584B00B4C14210A224FF463
:104830008063A4F5806C019302920391CDF800C0CF
:104840000023064A06A1204600F0F2FB04B02046F1
:10485000BDE8104000F058BCF0080020A546000854
:104860006D61696E0000000070B5054C054DAC42ED
:1048700004D220688047241DAC42FAD370BD0000EA
:10488000305A0008385A000870B5054C054DAC4246
:1048900004D220688047241DAC42FAD370BD0000CA
:1048A000385A00083C5A000810B5FBF75DFC044973
:1048B0004A88521C4A80BDE81040FBF759BC0000F2
:1048C0008800002010B5FBF74FFC0B4C6188491E97
:1048D00009B2618000290ADC00216180FBF748FCF5
:1048E0006068002807D0BDE8104000F013BABDE8AA
:1048F0001040FBF73DBC10BD8800002010B5FCF750
:104900001DFCFEF7F2FDFEF72DFEFCF7EDFD4FF46A
:104910007A71B0FBF1F0FCF7D3FFBDE81040FFF770
:10492000A3BF0000F8B5054600240D2000900E49F5
:10493000002081F83C00284600F0C8FA0646300006
:1049400011D0285D0A2805D101231A466946064878
:10495000FDF7B4FD012329191A460348FDF7AEFD02
:10496000641CB442EDD3F8BDE00B002070B50546E1
:104970002C1D2C480168002903D0284688470028B0
:104980004ED029A0E16B00F029F92BA0216A00F09C
:1049900025F92DA0616A00F021F92FA0A16A00F08D
:1049A0001DF931A0E16A00F019F933A0216800F087
:1049B00015F935A0616800F011F937A0A16800F081
:1049C0000DF939A0E16800F009F93BA0216900F078
:1049D00005F93DA0616900F001F93FA0A16900F06F
:1049E000FDF841A0E16900F0F9F843A0216B00F067
:1049F000F5F845A0616B00F0F1F847A0A16B00F05D
:104A0000EDF8287810F0040F06D000F055FB0146B1
:104A100045A000F0E3F802E04BA000F0DFF8FEE76D
:104A200070BD0000A80000207073723A2030782515
:104A30003038780A000000007230303A2030782593
:104A40003038780A000000007230313A2030782582
:104A50003038780A000000007230323A2030782571
:104A60003038780A000000007230333A2030782560
:104A70003038780A000000007230343A203078254F
:104A80003038780A000000007230353A203078253E
:104A90003038780A000000007230363A203078252D
:104AA0003038780A000000007230373A203078251C
:104AB0003038780A000000007230383A203078250B
:104AC0003038780A000000007230393A20307825FA
:104AD0003038780A000000007231303A20307825F2
:104AE0003038780A000000007231313A20307825E1
:104AF0003038780A000000007231323A20307825D0
:104B00003038780A00000000206C723A2030782596
:104B10003038780A000000002070633A2030782591
:104B20003038780A000000006861726420666175A0
:104B30006C74206F6E207468726561643A2025730E
:104B40000D0A0D0A0000000068617264206661753C
:104B50006C74206F6E2068616E646C65720D0A0D56
:104B60000A00000030B40546101D20F00700A0F137
:104B7000400420460022DFF828C040F822C0521C22
:104B8000102AFAD30162002141628162C16201638D
:104B9000436385634FF08071C163204630BC70472A
:104BA000EFBEADDE10B5FBF7DFFA04490A78521C00
:104BB0000A70BDE81040FBF7DBBA0000540000208B
:104BC00010B5FBF7D1FA04490A78521E0A70BDE805
:104BD0001040FBF7CDBA0000540000200FB408B518
:104BE00003AB00937F210548029A00F0B3FC034811
:104BF000FFF798FE01B05DF814FB0000600A00208A
:104C0000034601F0FF0C042A1CD310F0030F19D146
:104C100001464CEA0C2343EA0343102A0AD341F825
:104C2000043B41F8043B41F8043B41F8043B103A93
:104C3000102AF4D2042A04D341F8043B121F042A98
:104C4000FAD20B46511E05D30CF0FF0203F8012BDC
:104C5000491EFBD2704710B5044600202072FBF7B6
:104C600083FA014604F10C00036842685A60436805
:104C700002681A6040600060BDE810400846FBF71B
:104C800077BA00000021074A02EB01131B78834228
:104C900002D102EB01107047491C0329F4DB00200C
:104CA00070470000580000202DE9F04105460E46EF
:104CB00017463046FFF7E6FF0446FFF7F5FD60684C
:104CC000211D884202D000688842FCD1FFF7FAFD1E
:104CD00046F08000287208223946284600F0FEF887
:104CE000FBF742FA0246201D05F10C0103685960EA
:104CF00003680B6001604860BDE8F0411046FBF7B7
:104D000037BA007A10F0800F01D0012070470020E0
:104D10007047000070B5FBF727FA0546134C608812
:104D2000A8B9A068FEF7F2FE421E114850F8320002
:104D3000A0F114016368994209D0227061600D48A6
:104D4000007848B11C3103F11C00FBF714FA284627
:104D5000BDE87040FBF70CBA1C3103F11C00FBF7F7
:104D60000AFA2846BDE87040FBF702BA8800002026
:104D7000E00A00205400002010B50446FBF7F4F9C7
:104D8000024694F8340020F00F0040F0010084F84F
:104D9000340094F835000A4901EBC00104F1140015
:104DA0004B6818604B684360486001600548A16B20
:104DB000836819438160BDE810401046FBF7D8B9FD
:104DC000E00A00208800002010B50446FBF7CCF96B
:104DD000024604F114010B68486858604B68086883
:104DE00018604960096094F835000A4901EBC00079
:104DF0000168814201D1012000E0002028B106486D
:104E0000A16B836823EA01018160BDE81040104670
:104E1000FBF7AEB9E00A00208800002008B509A021
:104E2000FFF7DCFE0AA0FFF7D9FE12A000900523D1
:104E30000122032112A0FFF7D1FEBDE8084018A00F
:104E4000FFF7CCBE0A205C207C202F0A0000000067
:104E50002D205254202D202020202054687265617E
:104E600064204F7065726174696E67205379737442
:104E7000656D0A004D6172202039203230323200D7
:104E8000202F207C205C202020202025642E2564DB
:104E90002E2564206275696C642025730A00000069
:104EA0002032303036202D203230323020436F70A7
:104EB0007972696768742062792072742D746872DF
:104EC000656164207465616D0A000000014600E0C0
:104ED000491C0A78002AFBD1081A7047002A09D019
:104EE000034611F801CB03F801CBBCF1000F02D04F
:104EF000521EF6D17047511EFCD0002203F8012B40
:104F0000491EFBD1704700000B4B4FF0000CA3F87B
:104F100002C00020094A02EBC00149600960401C40
:104F20002028F8DB1F201870C3F804C0C3F808C09D
:104F3000034840600060704788000020E00A0020BD
:104F40009400002010B5074CA068FEF7DFFD401E5E
:104F5000054951F8300014386060BDE810401C303D
:104F6000FBF737B988000020E00A00200020044A3F
:104F700002EBC00149600960401C0028F8D070476E
:104F8000A00000207047000070B515480468FBF7CA
:104F9000EBF805462046FFF799FA2046FFF714FF85
:104FA000042084F8340004F1440000F009FA20469B
:104FB000FFF7A7FE01280FD00A4904F114000A6880
:104FC00050600A68026008604160FFF7A3FE28464F
:104FD000BDE87040FBF7CCB82046FFF73CFEF4E795
:104FE0008C0000209400002000F001F8FCE77047DE
:104FF00000B585B020201F218022084B009301922C
:10500000029103900023064A06A1084800F010F818
:1050100005B006485DF804EB00F076B8E009002022
:10502000E94F00087469646C65000000680900209D
:105030002DE9F04F85B00EAC8146F0CC8846924603
:105040009B46424601214846FFF72EFE8DE8F000C0
:105050005B46524641464846FFF7E6F905B0BDE8D3
:10506000F08F10B500F0D2F8BDE8104000F02AB87B
:1050700070B5044694F8340000F00F00022802D006
:105080004FF0FF3070BDFBF76FF8054604F11401D7
:105090000A68486850604A6808681060496009609A
:1050A00004F1440000F02CFA2846FBF761F8204692
:1050B000FFF762FE002070BD0148006870470000E5
:1050C0008C00002031B5FBF74FF805460D48046809
:1050D000204600F02EF86A46002104F1440000F05A
:1050E00045F904F1440000F0A3F92846FBF740F825
:1050F000FFF710FE206B10F1020F01D1002020639A
:10510000002038BD8C00002010B590F8361080F8D3
:105110003510012202FA01F18163022180F8341076
:10512000FFF7A6FFFFF7C8FF08B1FFF7F3FD002068
:1051300010BD70B5044694F8340000F00F0001284B
:1051400002D04FF0FF3070BDFBF70EF80546204649
:10515000FFF73AFE94F8340020F00F0040F0020010
:1051600084F8340004F1440000F0CAF92846FAF744
:10517000FFFF002070BD10B56FF00101016300F169
:1051800014010B684A685A604B680A681A604960E3
:105190000960FFF7F1FDBDE81040FFF7BBBD00005F
:1051A00010B5FAF7E1FF1749096891F8342002F0C9
:1051B0000F02012A21D1D1F814C08B699C451CD063
:1051C00001F11402CCF80430D2F804C01368CCF812
:1051D00000305260126091F835200B4B143103EB14
:1051E000C2025368196053684B6051600A60FAF755
:1051F000BFFFFFF78FFD002010BDFAF7B9FF0020B9
:1052000010BD00008C000020E00A0020002802DA17
:105210004FF0FF3070474FF47A7190FBF1F24A4340
:1052200090FBF1F301FB130000EB4003C3EBC01054
:105230004B1E03EBC00090FBF1F0104470470000E0
:1052400001480068704700005000002010B5094870
:105250000168491C0160FFF72FFF016C491E0164C2
:1052600019B9C16B0164FFF79BFFBDE8104000F066
:1052700003B80000500000202DE9F04182B06846DC
:1052800001900090FFF7DCFF8046FAF76DFF0746BC
:1052900035480168814201D1012000E0002000284A
:1052A0005CD1314D6FF000462868A0F11404A06A6B
:1052B000A8EB0000B04251D22246002002EBC00110
:1052C0001431D1F800C04B68CCF80430D1F804C0D8
:1052D0000B68CCF8003049600960401C0128EDDB08
:1052E000607A10F0020F02D120F00100607269466E
:1052F00004F11400009A5060009A0260009041602E
:10530000E169206A8847FFF79BFF8046684600995D
:10531000814201D1012000E00020B0B904F1140065
:105320000268416851604268016811604060006035
:10533000607A10F0020F08D010F0010F05D020F0B5
:1053400001006072204600F073F80748016881424E
:1053500001D1012000E000200028A5D03846FAF74E
:1053600007FF02B0BDE8F081A000002070B5044640
:105370000E461546FAF7F8FE052E1DD2DFE806F0B8
:105380000603090E1300616A296015E0296861624D
:1053900012E0617A21F0020161720DE0617A41F060
:1053A0000201617208E0617A11F0010F02D001215F
:1053B000296001E000212960FAF7DAFE002070BDC3
:1053C00070B50546FAF7D0FE2C46002204EBC20168
:1053D0001431D1F800C04B68CCF80430D1F804C0C7
:1053E0000B68CCF8003049600960521C012AEDDBE3
:1053F000697A21F001016972FAF7BAFE2846FFF7CF
:105400002AFC002070BD2DE9F8438046089D099CC8
:1054100016461F460A460A214046FFF745FC2B4622
:105420003A46314640460094FFF73CF8BDE8F88321
:105430002DE9F8430446FAF797FE05462246002078
:1054400002EBC0011431D1F800C04B68CCF8043035
:10545000D1F804C00B68CCF8003049600960401CEA
:105460000128EDDB607A20F001006072FFF7E8FEB2
:10547000616A00EB010CC4F828C01F4F009700219F
:105480006FF00048684607EBC10350F821205E68C2
:10549000B2420FD050F821201268A2EBC1035B6921
:1054A000634503D0A3EB0C03434503D340F821200D
:1054B000B242EFD129B150F8212008324B1C40F8FC
:1054C0002320491C0029DED00C480168491C0160DA
:1054D000009804F114010268516002680A600160DA
:1054E0004860607A40F0010060722846FAF740FE9A
:1054F0000020BDE8F8830000A00000209C000020F0
:1055000070B50446607A10F0010F1FD0FAF72CFE38
:1055100003462046002200EBC20114310D68D1F889
:1055200004C0C5F804C04D68D1F800C0C5F800C07B
:1055300049600960521C012AEDDB607A20F001000D
:1055400060721846FAF714FE002070BD4FF0FF306D
:1055500070BD00002DE9FF4F83B006460F4614468C
:10556000F5193046854203D24FF0FF35C6F1FF37BB
:105570002178002900F05C816FF02F094FF020089E
:105580004FF0250A2178252905D0A84200D20170C4
:10559000401C00F048B90021641C23782D2B1ED03C
:1055A0002B2B1FD0202B20D0232B21D0302B22D0EF
:1055B0004FF0FF3294F800C0ACF1300CBCF10A0F90
:1055C0001CD20022234602EB82021B7809EB420226
:1055D000641C1A442378303B0A2BF3D31AE041F0C1
:1055E0001001D9E741F00401D6E741F00801D3E703
:1055F00041F02001D0E741F00101CDE72A2B09D18C
:10560000641C069B53F8042B0693002A02DA5242CC
:1056100041F010014FF0FF3B23782E2B22D1641C68
:105620002378A3F1300CBCF10A0F0FD24FF0000B1E
:1056300023460BEB8B0C1B7809EB4C0C641C03EB27
:105640000C0B2378303B0A2BF2D306E02A2B04D133
:10565000641C069B53F804BB0693BBF1000F01DAF0
:105660004FF0000B4FF0000E2378682B01D06C2B0D
:1056700001D19E46641C0A2394F800C0BCF16F0F50
:105680007ED011DCBCF1630F27D006DCBCF1250F06
:1056900077D0BCF1580F13D1ABE0BCF1640F71D0DF
:1056A000BCF1690F0CD1A8E0BCF1700F6BD0BCF15C
:1056B000730F35D0BCF1750F66D0BCF1780F7BD07D
:1056C000A84201D280F800A0401C2178002974D0A3
:1056D000A84200D20170401CA5E011F0100F0AD1C1
:1056E000521E002A07DDA84201D280F80080401C2B
:1056F000521E002AF7DC069911F8043B0691D9B234
:10570000A84200D20170401C511E002953DDA8425E
:1057100001D280F80080401C491E0029F7DC82E09D
:10572000DDF818C05CF8043BCDF818C003B952A3EB
:105730004FF0000C01E00CF1010C944504D013F87B
:105740000CE0BEF1000FF6D1BBF1000F02DDDC452D
:1057500000DDDC4611F0100F0CD11146521E6145E0
:1057600008DDA84201D280F80080401C1146521E7C
:105770006145F6DC0021BCF1000F10DDA84204E019
:1057800035E02EE039E019E039E003D293F800B0BB
:1057900080F800B0401C5B1C491C6145EEDB511ECB
:1057A000624540DDA84201D280F80080401C0A46D4
:1057B000491E6245F6DC36E01DE03FE0B2F1FF3FF6
:1057C00002D1082241F00101CDF804B002910699FE
:1057D0000092102351F8042B06912946FEF76AFF28
:1057E00021E0A84201D280F800A0401C1BE0082361
:1057F00005E041F04001102301E041F00201BEF15B
:105800006C0F1DD0BEF1680F21D0DDF818E05EF8F6
:1058100004CBCDF818E000920291CDF804B06246B6
:105820002946FEF747FF641C217800297FF4AAAEC1
:10583000EFB10021A84218D2017018E0641EF2E70F
:10584000DDF818E05EF804CBCDF818E0E3E7DDF80A
:1058500018C03CF804EBCDF818C01FFA8EFC11F00C
:10586000020FD8D00FFA8CFCD5E705F8011C07B061
:10587000801BBDE8F08F0000284E554C4C290000DD
:1058800000207047002070470020704700207047BC
:1058900010B5FAF769FCFFF731F8FFF7BFFAFFF729
:1058A00065FBFFF731FBFEF7BDFFFFF76BFBFFF773
:1058B0009FFBFFF747FB002010BD000010B50B4811
:1058C000094901604FF4E131416000218160C1600C
:1058D00001610C2242618161C161FCF7B1FC00B140
:1058E000FEE7002010BD000000440040E00B002057
:1058F0000000000000000000010203040607080980
:105900000000000001020304000001000200010089
:105910000300010002000100040001000200010078
:105920000300010002000100050001000200010067
:105930000300010002000100040001000200010058
:105940000300010002000100060001000200010046
:105950000300010002000100040001000200010038
:105960000300010002000100050001000200010027
:105970000300010002000100040001000200010018
:105980000300010002000100070001000200010005
:1059900003000100020001000400010002000100F8
:1059A00003000100020001000500010002000100E7
:1059B00003000100020001000400010002000100D8
:1059C00003000100020001000600010002000100C6
:1059D00003000100020001000400010002000100B8
:1059E00003000100020001000500010002000100A7
:1059F0000300010002000100040001000200010098
:105A000003000100020001003031323334353637F3
:105A1000383961626364656600303132333435365B
:105A20003738394142434445460000008D5800084C
:105A300085580008BD58000881580008895800089A
:105A4000605A000800000020BC000000543B000821
:105A50001C5B0008BC0000206C0F0000643B0008C9
:105A60000000000001000000100000000000000025
:105A70000024F4000000000000000000000000000E
:105A80000000000000000000000000000000000016
:105A90000000000000000000000000000000000006
:105AA0000000000000000000000000008FC2F53C74
:105AB0000000000000000000010000005C00002069
:105AC0005C00002078000000020000006C00002054
:105AD0006C000020200000000A0000007C00002074
